:100000000C9462000C948A000C948A000C948A0070
:100010000C948A000C948A000C948A000C948A0038
:100020000C948A000C948A000C948A000C948A0028
:100030000C948A000C948A000C948A000C948A0018
:100040000C9472030C948A000C94E2030C94BC038D
:100050000C948A000C948A000C948A000C948A00F8
:100060000C948A000C948A000000000023002600F3
:10007000290000000000240027002A0000000000E2
:10008000250028002B0004040404040404040202D4
:100090000202020203030303030301020408102007
:1000A0004080010204081020010204081020000012
:1000B0000008000201000003040700000000000027
:1000C0000000750611241FBECFEFD8E0DEBFCDBF04
:1000D00011E0A0E0B1E0ECECFDE002C005900D9273
:1000E000AE33B107D9F722E0AEE3B1E001C01D9213
:1000F000A530B207E1F710E0C2E6D0E004C02197D6
:10010000FE010E94C406C136D107C9F70E9414043B
:100110000C94E4060C940000833081F028F48130C4
:1001200099F08230A9F008958730A9F08830C9F09D
:100130008430B1F4809180008F7D03C08091800075
:100140008F7780938000089584B58F7784BD08955C
:1001500084B58F7DFBCF8091B0008F778093B00006
:1001600008958091B0008F7DF9CF1F93CF93DF93D7
:10017000282F30E0F901E255FF4F8491F901E6564E
:10018000FF4FD491F901EA57FF4FC491CC23A9F056
:10019000162F81110E948C00EC2FF0E0EE0FFF1F54
:1001A000E458FF4FA591B4918FB7F894EC911111D9
:1001B00008C0D095DE23DC938FBFDF91CF911F91D4
:1001C0000895DE2BF8CFCF93DF9390E0FC01E65645
:1001D000FF4F24918A579F4FFC0184918823D1F0CF
:1001E00090E0880F991FFC01EE58FF4FA591B49144
:1001F000FC01E458FF4FC591D491623071F49FB770
:10020000F8943C91822F809583238C93E8812E2B48
:1002100028839FBFDF91CF9108958FB7F894EC9119
:100220002E2B2C938FBFF6CF3FB7F89480916401AB
:1002300090916501A0916601B091670126B5A89BD8
:1002400005C02F3F19F00196A11DB11D3FBFBA2F68
:10025000A92F982F8827BC01CD01620F711D811D28
:10026000911D42E0660F771F881F991F4A95D1F7AD
:100270000895AF92BF92CF92DF92EF92FF920F93C9
:100280001F93CF93DF936C017B018B01040F151F2C
:10029000EB015E01AE18BF08C017D10759F0699194
:1002A000D601ED91FC910190F081E02DC6010995F8
:1002B000892B79F7C501DF91CF911F910F91FF90A5
:1002C000EF90DF90CF90BF90AF900895FC01538DD9
:1002D000448D252F30E0842F90E0821B930B541720
:1002E00010F0CF96089501970895FC01918D828DAD
:1002F000981761F0A28DAE0FBF2FB11D5D968C9146
:10030000928D9F5F9F73928F90E008958FEF9FEF84
:100310000895FC01918D828D981731F0828DE80F40
:10032000F11D858D90E008958FEF9FEF0895FC01FA
:10033000918D228D892F90E0805C9F4F821B9109C7
:100340008F739927089588E691E00E94970121E034
:10035000892B09F420E0822F089580E090E0892B1A
:1003600029F00E94A30181110C9400000895FC0162
:10037000A48DA80FB92FB11DA35ABF4F2C91848D06
:1003800090E001968F739927848FA689B7892C9363
:10039000A089B1898C91837080648C93938D848DB6
:1003A000981306C00288F389E02D80818F7D8083B9
:1003B0000895EF92FF920F931F93CF93DF93EC0179
:1003C00081E0888F9B8D8C8D98131AC0E889F989FC
:1003D000808185FF15C09FB7F894EE89FF896083FF
:1003E000E889F98980818370806480839FBF81E080
:1003F00090E0DF91CF911F910F91FF90EF900895C2
:10040000F62E0B8D10E00F5F1F4F0F731127E02E9C
:100410008C8D8E110CC00FB607FCFACFE889F989D4
:10042000808185FFF5CFCE010E94B701F1CFEB8D22
:10043000EC0FFD2FF11DE35AFF4FF0829FB7F894A8
:100440000B8FEA89FB8980818062CFCF682F88E695
:1004500091E00C94D901CF93DF93EC01888D882330
:10046000B9F0AA89BB89E889F9898C9185FD03C017
:10047000808186FD0DC00FB607FCF7CF8C9185FFFC
:10048000F2CF808185FFEDCFCE010E94B701E9CF89
:10049000DF91CF9108959F92AF92BF92CF92DF925A
:1004A000EF92FF920F931F93CF93DF9394E0A92EC7
:1004B000C82FD0E08E0102551F4FCE0186569F4FA8
:1004C0007C01CA57DF4F2BEEC22ED12CF80184914C
:1004D000F701B490FE019490911008C0C6010197F5
:1004E000F1F7AA94A110F2CF81E00FC081110E9410
:1004F0008C00E92DF0E0EE0FFF1FE859FF4FA591AA
:10050000B4918C91B82251F380E0DF91CF911F918B
:100510000F91FF90EF90DF90CF90BF90AF909F90A2
:10052000089560E082E00E94B50060E083E00E94F0
:10053000B50060E084E00E94B50060E085E00C94C6
:10054000B50010925E0110925D0180933E010C9403
:100550009102CF93C82F813009F046C08BE00E94F2
:100560004B0281113DC081E080935E01C13009F0F2
:10057000CFEFC0935D0110923E012FB7F8948091A8
:10058000600190916101A0916201B09163012FBF60
:100590008093590190935A01A0935B01B0935C0141
:1005A0001092550110925601109257011092580165
:1005B00080E797E1A0E0B0E0809300019093010113
:1005C000A0930201B09303010E94140160935101B2
:1005D000709352018093530190935401CF910895E9
:1005E00082E0CF910C94A1028F3F09F0BCCF8AE04A
:1005F0000E944B02882309F4B6CF81E0F2CFFC01C0
:1006000001900020E9F73197AF01481B590BBC015D
:1006100088E691E00C9439018F929F92AF92BF923D
:100620000F931F93CF93DF93CDB7DEB7A1970FB68C
:10063000F894DEBF0FBECDBF19A2423008F44AE0E5
:100640008E010F5D1F4F842E912CB12CA12CA50182
:1006500094010E94A206E62FB901CA01EA30F4F41F
:10066000E05DD801EE938D01232B242B252B79F708
:1006700090E080E0109719F0CD010E94FF02A19652
:100680000FB6F894DEBF0FBECDBFDF91CF911F91A3
:100690000F91BF90AF909F908F900895E95CE1CF4C
:1006A000CF93DF930E94FF02EC018AE291E00E9467
:1006B000FF028C0F9D1FDF91CF910895CF93C82F1C
:1006C0008AE20E9426028C2F0E9426024AE062E6FD
:1006D00070E080E090E00E940C038DE291E0CF9109
:1006E0000C9450031F920F920FB60F9211242F9368
:1006F0003F938F939F93AF93BF93809160019091AD
:100700006101A0916201B091630130915F0123E02A
:10071000230F2D3758F50196A11DB11D20935F01C0
:100720008093600190936101A0936201B093630193
:100730008091640190916501A0916601B09167017B
:100740000196A11DB11D8093640190936501A09352
:100750006601B0936701BF91AF919F918F913F91D7
:100760002F910F900FBE0F901F90189526E8230F22
:100770000296A11DB11DD2CF1F920F920FB60F92FC
:1007800011242F933F934F935F936F937F938F9396
:100790009F93AF93BF93EF93FF9388E691E00E94FE
:1007A000B701FF91EF91BF91AF919F918F917F9191
:1007B0006F915F914F913F912F910F900FBE0F90CE
:1007C0001F9018951F920F920FB60F9211242F931E
:1007D0008F939F93EF93FF93E0917801F0917901CC
:1007E0008081E0917E01F0917F0182FD1BC09081AC
:1007F000809181018F5F8F7320918201821741F078
:10080000E0918101F0E0E859FE4F958F80938101DE
:10081000FF91EF919F918F912F910F900FBE0F90AD
:100820001F9018958081F4CFCF93DF9300D000D034
:10083000CDB7DEB7789484B5826084BD84B581601D
:1008400084BD85B5826085BD85B5816085BD80919B
:100850006E00816080936E00109281008091810013
:10086000826080938100809181008160809381000B
:10087000809180008160809380008091B1008460CD
:100880008093B1008091B00081608093B00080912E
:100890007A00846080937A0080917A0082608093ED
:1008A0007A0080917A00816080937A0080917A004A
:1008B000806880937A001092C10061E082E00E941B
:1008C000E30061E083E00E94E30061E084E00E94D5
:1008D000E30061E085E00E94E3000E94910262E093
:1008E0008AE00E94E30062E08BE00E94E300E09176
:1008F0007801F091790182E08083E0917401F091B8
:1009000075011082E0917601F09177018FEC808380
:1009100010928001E0917C01F0917D0186E080835E
:10092000E0917A01F0917B01808180618083E09188
:100930007A01F0917B01808188608083E0917A0167
:10094000F0917B01808180688083E0917A01F09151
:100950007B0180818F7D80830E9414016B017C016B
:1009600094E1892E912CA12CB12C0E9414016C19B8
:100970007D098E099F09683E734081059105A8F3A2
:1009800021E0821A9108A108B10838EEC30E33E0C5
:10099000D31EE11CF11C81149104A104B10429F7B8
:1009A0008AE00E944B0289838BE00E944B0289807F
:1009B000882009F495C1811195C181E080933E01A1
:1009C00080E7482E87E1582E612C712C88E691E053
:1009D0000E949701892B09F4A7C088E691E00E9444
:1009E00075018D3099F3E0914F018A3009F091C083
:1009F000AE2FB0E0A15CBE4F1C92EE2309F460C0A4
:100A000080913F018E3309F05BC0EFE3F1E001908C
:100A10000020E9F7CF0180549140029708F450C0BC
:100A2000E0914001E254E53108F04AC00E2E000C7E
:100A3000FF0BE35EFA4F0C94C40683053D05870562
:100A40006005600560056005600575056005850544
:100A500060056005380534056005600542056005E0
:100A60006005650582E0AACF80E50E945E0328C08C
:100A700081E00E94A9028FE4F8CF8FEF0E94A902C3
:100A800083E4F3CF81E391E00E94FF024AE062E653
:100A900070E080E090E00E940C0380915E0188236A
:100AA00091F081E30E94260280E30E942602809159
:100AB0003E01805D0E9426028AE291E00E94FF02D0
:100AC00010924F0183CF80E3EDCF84E391E00E9449
:100AD000FF024AE062E670E080E090E00E940C03D2
:100AE00087E391E00E945003EBCF8BE391E00E94FB
:100AF000FF024AE062E670E080E090E00E940C03B2
:100B00008DE291E0EFCF82E4B0CF8CE4AECF84E40D
:100B1000ACCFEF30A8F691E09E0F90934F01F0E03C
:100B2000E15CFE4F808352CF80915E01882309F4FF
:100B3000C5C080915D0118163CF58BE00E944B0208
:100B400081111EC02FB7F8948091600190916101CE
:100B5000A0916201B09163012FBF40915901509162
:100B60005A0160915B0170915C01841B950BA60B8F
:100B7000B70B88379946A105B10578F083E001C02D
:100B800082E00E94A1029AC08823E1F28AE00E94DA
:100B90004B028823B9F281E0F4CFC0905501D09088
:100BA0005601E0905701F090580124EAC2162FE157
:100BB000D206E104F10410F70E9414018090510163
:100BC00090905201A0905301B090540189829A8272
:100BD000AB82BC82009100011091010120910201C1
:100BE00030910301AB01BC01481959096A097B091D
:100BF000401751076207730708F460C0D501C401AC
:100C0000800F911FA21FB31F809351019093520137
:100C1000A0935301B09354018091500120905D0145
:100C2000820D83708093500106E111E024E0829FE1
:100C300010011124B12CA12CF80181918F01F50133
:100C4000E20DF31DE65EFE4F61E09081911101C05F
:100C500060E00E94B500FFEFAF1ABF0A24E0A216C1
:100C6000B10451F7A70196012F5F3F4F4F4F5F4FE0
:100C700020935501309356014093570150935801EA
:100C8000203981E038074105510528F5A0E1BEE093
:100C90000E94CA0620E931E040E050E00E94A2062E
:100CA000D301C201821B930BA40BB50B80930001EF
:100CB00090930101A0930201B0930301E0E0F0E002
:100CC000EF2B09F483CE0E94A301882309F47ECE82
:100CD0000E9400007BCE80E699E0A0E0B0E0E6CF85
:100CE0008111C0CE10923E016BCEE8E6F1E0138296
:100CF000128288EE93E0A0E0B0E084839583A6831F
:100D0000B78388E091E09183808385EC90E09587BC
:100D1000848784EC90E09787868780EC90E0918BC5
:100D2000808B81EC90E0938B828B82EC90E0958BB2
:100D3000848B86EC90E0978B868B118E128E138EAF
:100D4000148E0895A1E21A2EAA1BBB1BFD010DC033
:100D5000AA1FBB1FEE1FFF1FA217B307E407F5076B
:100D600020F0A21BB30BE40BF50B661F771F881F47
:100D7000991F1A9469F760957095809590959B01DD
:100D8000AC01BD01CF010895EE0FFF1F0590F49156
:100D9000E02D09940E94D506A59F900DB49F900D5B
:100DA000A49F800D911D11240895A29FB001B39FAF
:100DB000C001A39F700D811D1124911DB29F700D64
:0C0DC000811D1124911D0895F894FFCFAF
:100DCC006009000000000000D901390166012B0206
:100DDC00970175018901020304050101000000015E
:100DEC00010000000101010000010D0A003030304B
:0E0DFC00002A53002A5600313230002A4A00E5
:00000001FF
